{
  "_format": "hh-sol-artifact-1",
  "contractName": "SquadWallet",
  "sourceName": "contracts/SquadWallet.sol",
  "abi": [
    {
      "inputs": [
        {
          "internalType": "address[]",
          "name": "_members",
          "type": "address[]"
        }
      ],
      "stateMutability": "payable",
      "type": "constructor"
    },
    {
      "anonymous": false,
      "inputs": [
        {
          "indexed": false,
          "internalType": "address",
          "name": "member",
          "type": "address"
        }
      ],
      "name": "MemberAdded",
      "type": "event"
    },
    {
      "anonymous": false,
      "inputs": [
        {
          "indexed": false,
          "internalType": "uint256",
          "name": "proposalId",
          "type": "uint256"
        },
        {
          "indexed": false,
          "internalType": "address",
          "name": "to",
          "type": "address"
        },
        {
          "indexed": false,
          "internalType": "uint256",
          "name": "amount",
          "type": "uint256"
        },
        {
          "indexed": false,
          "internalType": "string",
          "name": "description",
          "type": "string"
        }
      ],
      "name": "ProposalCreated",
      "type": "event"
    },
    {
      "anonymous": false,
      "inputs": [
        {
          "indexed": false,
          "internalType": "uint256",
          "name": "proposalId",
          "type": "uint256"
        }
      ],
      "name": "ProposalExecuted",
      "type": "event"
    },
    {
      "anonymous": false,
      "inputs": [
        {
          "indexed": false,
          "internalType": "uint256",
          "name": "proposalId",
          "type": "uint256"
        },
        {
          "indexed": false,
          "internalType": "address",
          "name": "voter",
          "type": "address"
        }
      ],
      "name": "ProposalVoted",
      "type": "event"
    },
    {
      "inputs": [
        {
          "internalType": "address",
          "name": "_member",
          "type": "address"
        }
      ],
      "name": "addMember",
      "outputs": [],
      "stateMutability": "nonpayable",
      "type": "function"
    },
    {
      "inputs": [
        {
          "internalType": "address",
          "name": "to",
          "type": "address"
        },
        {
          "internalType": "uint256",
          "name": "amount",
          "type": "uint256"
        },
        {
          "internalType": "string",
          "name": "description",
          "type": "string"
        }
      ],
      "name": "createProposal",
      "outputs": [],
      "stateMutability": "nonpayable",
      "type": "function"
    },
    {
      "inputs": [
        {
          "internalType": "uint256",
          "name": "proposalId",
          "type": "uint256"
        }
      ],
      "name": "executeProposal",
      "outputs": [],
      "stateMutability": "nonpayable",
      "type": "function"
    },
    {
      "inputs": [],
      "name": "getAllProposals",
      "outputs": [
        {
          "internalType": "address[]",
          "name": "toList",
          "type": "address[]"
        },
        {
          "internalType": "uint256[]",
          "name": "amountList",
          "type": "uint256[]"
        },
        {
          "internalType": "string[]",
          "name": "descriptionList",
          "type": "string[]"
        },
        {
          "internalType": "uint256[]",
          "name": "approvalList",
          "type": "uint256[]"
        },
        {
          "internalType": "bool[]",
          "name": "executedList",
          "type": "bool[]"
        },
        {
          "internalType": "address[]",
          "name": "creatorList",
          "type": "address[]"
        }
      ],
      "stateMutability": "view",
      "type": "function"
    },
    {
      "inputs": [],
      "name": "getMembers",
      "outputs": [
        {
          "internalType": "address[]",
          "name": "",
          "type": "address[]"
        }
      ],
      "stateMutability": "view",
      "type": "function"
    },
    {
      "inputs": [
        {
          "internalType": "uint256",
          "name": "proposalId",
          "type": "uint256"
        }
      ],
      "name": "getProposal",
      "outputs": [
        {
          "internalType": "address",
          "name": "to",
          "type": "address"
        },
        {
          "internalType": "uint256",
          "name": "amount",
          "type": "uint256"
        },
        {
          "internalType": "string",
          "name": "description",
          "type": "string"
        },
        {
          "internalType": "uint256",
          "name": "approvals",
          "type": "uint256"
        },
        {
          "internalType": "bool",
          "name": "executed",
          "type": "bool"
        },
        {
          "internalType": "address",
          "name": "creator",
          "type": "address"
        }
      ],
      "stateMutability": "view",
      "type": "function"
    },
    {
      "inputs": [
        {
          "internalType": "uint256",
          "name": "proposalId",
          "type": "uint256"
        },
        {
          "internalType": "address",
          "name": "user",
          "type": "address"
        }
      ],
      "name": "hasVoted",
      "outputs": [
        {
          "internalType": "bool",
          "name": "",
          "type": "bool"
        }
      ],
      "stateMutability": "view",
      "type": "function"
    },
    {
      "inputs": [
        {
          "internalType": "address",
          "name": "",
          "type": "address"
        }
      ],
      "name": "isMember",
      "outputs": [
        {
          "internalType": "bool",
          "name": "",
          "type": "bool"
        }
      ],
      "stateMutability": "view",
      "type": "function"
    },
    {
      "inputs": [
        {
          "internalType": "uint256",
          "name": "",
          "type": "uint256"
        }
      ],
      "name": "members",
      "outputs": [
        {
          "internalType": "address",
          "name": "",
          "type": "address"
        }
      ],
      "stateMutability": "view",
      "type": "function"
    },
    {
      "inputs": [],
      "name": "owner",
      "outputs": [
        {
          "internalType": "address",
          "name": "",
          "type": "address"
        }
      ],
      "stateMutability": "view",
      "type": "function"
    },
    {
      "inputs": [],
      "name": "proposalCount",
      "outputs": [
        {
          "internalType": "uint256",
          "name": "",
          "type": "uint256"
        }
      ],
      "stateMutability": "view",
      "type": "function"
    },
    {
      "inputs": [
        {
          "internalType": "uint256",
          "name": "",
          "type": "uint256"
        }
      ],
      "name": "proposals",
      "outputs": [
        {
          "internalType": "address",
          "name": "to",
          "type": "address"
        },
        {
          "internalType": "uint256",
          "name": "amount",
          "type": "uint256"
        },
        {
          "internalType": "string",
          "name": "description",
          "type": "string"
        },
        {
          "internalType": "uint256",
          "name": "approvals",
          "type": "uint256"
        },
        {
          "internalType": "bool",
          "name": "executed",
          "type": "bool"
        },
        {
          "internalType": "address",
          "name": "creator",
          "type": "address"
        }
      ],
      "stateMutability": "view",
      "type": "function"
    },
    {
      "inputs": [
        {
          "internalType": "uint256",
          "name": "proposalId",
          "type": "uint256"
        }
      ],
      "name": "vote",
      "outputs": [],
      "stateMutability": "nonpayable",
      "type": "function"
    },
    {
      "inputs": [
        {
          "internalType": "uint256",
          "name": "",
          "type": "uint256"
        },
        {
          "internalType": "address",
          "name": "",
          "type": "address"
        }
      ],
      "name": "voted",
      "outputs": [
        {
          "internalType": "bool",
          "name": "",
          "type": "bool"
        }
      ],
      "stateMutability": "view",
      "type": "function"
    },
    {
      "stateMutability": "payable",
      "type": "receive"
    }
  ],
  "bytecode": "0x608060405260405162002ecc38038062002ecc8339818101604052810190620000299190620004a9565b600081511162000070576040517f08c379a000000000000000000000000000000000000000000000000000000000815260040162000067906200055b565b60405180910390fd5b336000806101000a81548173ffffffffffffffffffffffffffffffffffffffff021916908373ffffffffffffffffffffffffffffffffffffffff16021790555060005b8151811015620002b3576000828281518110620000d557620000d46200057d565b5b60200260200101519050600073ffffffffffffffffffffffffffffffffffffffff168173ffffffffffffffffffffffffffffffffffffffff160362000151576040517f08c379a00000000000000000000000000000000000000000000000000000000081526004016200014890620005fc565b60405180910390fd5b600260008273ffffffffffffffffffffffffffffffffffffffff1673ffffffffffffffffffffffffffffffffffffffff16815260200190815260200160002060009054906101000a900460ff1615620001e1576040517f08c379a0000000000000000000000000000000000000000000000000000000008152600401620001d8906200066e565b60405180910390fd5b6001819080600181540180825580915050600190039060005260206000200160009091909190916101000a81548173ffffffffffffffffffffffffffffffffffffffff021916908373ffffffffffffffffffffffffffffffffffffffff1602179055506001600260008373ffffffffffffffffffffffffffffffffffffffff1673ffffffffffffffffffffffffffffffffffffffff16815260200190815260200160002060006101000a81548160ff021916908315150217905550508080620002aa90620006c9565b915050620000b3565b505062000716565b6000604051905090565b600080fd5b600080fd5b600080fd5b6000601f19601f8301169050919050565b7f4e487b7100000000000000000000000000000000000000000000000000000000600052604160045260246000fd5b6200031f82620002d4565b810181811067ffffffffffffffff82111715620003415762000340620002e5565b5b80604052505050565b600062000356620002bb565b905062000364828262000314565b919050565b600067ffffffffffffffff821115620003875762000386620002e5565b5b602082029050602081019050919050565b600080fd5b600073ffffffffffffffffffffffffffffffffffffffff82169050919050565b6000620003ca826200039d565b9050919050565b620003dc81620003bd565b8114620003e857600080fd5b50565b600081519050620003fc81620003d1565b92915050565b600062000419620004138462000369565b6200034a565b905080838252602082019050602084028301858111156200043f576200043e62000398565b5b835b818110156200046c5780620004578882620003eb565b84526020840193505060208101905062000441565b5050509392505050565b600082601f8301126200048e576200048d620002cf565b5b8151620004a084826020860162000402565b91505092915050565b600060208284031215620004c257620004c1620002c5565b5b600082015167ffffffffffffffff811115620004e357620004e2620002ca565b5b620004f18482850162000476565b91505092915050565b600082825260208201905092915050565b7f4174206c65617374206f6e65206d656d62657220726571756972656400000000600082015250565b600062000543601c83620004fa565b915062000550826200050b565b602082019050919050565b60006020820190508181036000830152620005768162000534565b9050919050565b7f4e487b7100000000000000000000000000000000000000000000000000000000600052603260045260246000fd5b7f496e76616c6964206d656d626572206164647265737300000000000000000000600082015250565b6000620005e4601683620004fa565b9150620005f182620005ac565b602082019050919050565b600060208201905081810360008301526200061781620005d5565b9050919050565b7f4475706c6963617465206d656d62657200000000000000000000000000000000600082015250565b600062000656601083620004fa565b915062000663826200061e565b602082019050919050565b60006020820190508181036000830152620006898162000647565b9050919050565b7f4e487b7100000000000000000000000000000000000000000000000000000000600052601160045260246000fd5b6000819050919050565b6000620006d682620006bf565b91507fffffffffffffffffffffffffffffffffffffffffffffffffffffffffffffffff82036200070b576200070a62000690565b5b600182019050919050565b6127a680620007266000396000f3fe6080604052600436106100e15760003560e01c80639eab52531161007f578063ca6d56dc11610059578063ca6d56dc1461030d578063cca5a8b214610336578063cceb68f51461035f578063da35c6641461038f576100e8565b80639eab525314610263578063a230c5241461028e578063c7f758a8146102cb576100e8565b806343859632116100bb57806343859632146101815780635277b4ae146101be5780635daf08ca146101fb5780638da5cb5b14610238576100e8565b80630121b93f146100ed578063013cf08b146101165780630d61b51914610158576100e8565b366100e857005b600080fd5b3480156100f957600080fd5b50610114600480360381019061010f9190611666565b6103ba565b005b34801561012257600080fd5b5061013d60048036038101906101389190611666565b61068a565b60405161014f9695949392919061178e565b60405180910390f35b34801561016457600080fd5b5061017f600480360381019061017a9190611666565b6107ab565b005b34801561018d57600080fd5b506101a860048036038101906101a39190611822565b610978565b6040516101b59190611862565b60405180910390f35b3480156101ca57600080fd5b506101e560048036038101906101e09190611822565b6109e0565b6040516101f29190611862565b60405180910390f35b34801561020757600080fd5b50610222600480360381019061021d9190611666565b610a0f565b60405161022f919061187d565b60405180910390f35b34801561024457600080fd5b5061024d610a4e565b60405161025a919061187d565b60405180910390f35b34801561026f57600080fd5b50610278610a72565b6040516102859190611956565b60405180910390f35b34801561029a57600080fd5b506102b560048036038101906102b09190611978565b610b00565b6040516102c29190611862565b60405180910390f35b3480156102d757600080fd5b506102f260048036038101906102ed9190611666565b610b20565b6040516103049695949392919061178e565b60405180910390f35b34801561031957600080fd5b50610334600480360381019061032f9190611978565b610c5b565b005b34801561034257600080fd5b5061035d60048036038101906103589190611a0a565b610eda565b005b34801561036b57600080fd5b506103746111e9565b60405161038696959493929190611d06565b60405180910390f35b34801561039b57600080fd5b506103a4611620565b6040516103b19190611d91565b60405180910390f35b600260003373ffffffffffffffffffffffffffffffffffffffff1673ffffffffffffffffffffffffffffffffffffffff16815260200190815260200160002060009054906101000a900460ff16610446576040517f08c379a000000000000000000000000000000000000000000000000000000000815260040161043d90611df8565b60405180910390fd5b600480549050811061048d576040517f08c379a000000000000000000000000000000000000000000000000000000000815260040161048490611e64565b60405180910390fd5b6000600482815481106104a3576104a2611e84565b5b906000526020600020906005020190506005600083815260200190815260200160002060003373ffffffffffffffffffffffffffffffffffffffff1673ffffffffffffffffffffffffffffffffffffffff16815260200190815260200160002060009054906101000a900460ff1615610551576040517f08c379a000000000000000000000000000000000000000000000000000000000815260040161054890611eff565b60405180910390fd5b8060040160009054906101000a900460ff16156105a3576040517f08c379a000000000000000000000000000000000000000000000000000000000815260040161059a90611f6b565b60405180910390fd5b60016005600084815260200190815260200160002060003373ffffffffffffffffffffffffffffffffffffffff1673ffffffffffffffffffffffffffffffffffffffff16815260200190815260200160002060006101000a81548160ff02191690831515021790555080600301600081548092919061062190611fba565b91905055507f34647120636ce03d739347e28e9d1bdd34fd03d066ae60439fb1be2721ad16cd8233604051610657929190612002565b60405180910390a16002600180549050610671919061205a565b8160030154111561068657610685826107ab565b5b5050565b6004818154811061069a57600080fd5b90600052602060002090600502016000915090508060000160009054906101000a900473ffffffffffffffffffffffffffffffffffffffff16908060010154908060020180546106e9906120ba565b80601f0160208091040260200160405190810160405280929190818152602001828054610715906120ba565b80156107625780601f1061073757610100808354040283529160200191610762565b820191906000526020600020905b81548152906001019060200180831161074557829003601f168201915b5050505050908060030154908060040160009054906101000a900460ff16908060040160019054906101000a900473ffffffffffffffffffffffffffffffffffffffff16905086565b60048054905081106107f2576040517f08c379a00000000000000000000000000000000000000000000000000000000081526004016107e990611e64565b60405180910390fd5b60006004828154811061080857610807611e84565b5b906000526020600020906005020190508060040160009054906101000a900460ff161561086a576040517f08c379a000000000000000000000000000000000000000000000000000000000815260040161086190612137565b60405180910390fd5b80600101544710156108b1576040517f08c379a00000000000000000000000000000000000000000000000000000000081526004016108a8906121a3565b60405180910390fd5b60018160040160006101000a81548160ff0219169083151502179055508060000160009054906101000a900473ffffffffffffffffffffffffffffffffffffffff1673ffffffffffffffffffffffffffffffffffffffff166108fc82600101549081150290604051600060405180830381858888f1935050505015801561093c573d6000803e3d6000fd5b507f712ae1383f79ac853f8d882153778e0260ef8f03b504e2866e0593e04d2b291f8260405161096c9190611d91565b60405180910390a15050565b60006005600084815260200190815260200160002060008373ffffffffffffffffffffffffffffffffffffffff1673ffffffffffffffffffffffffffffffffffffffff16815260200190815260200160002060009054906101000a900460ff16905092915050565b60056020528160005260406000206020528060005260406000206000915091509054906101000a900460ff1681565b60018181548110610a1f57600080fd5b906000526020600020016000915054906101000a900473ffffffffffffffffffffffffffffffffffffffff1681565b60008054906101000a900473ffffffffffffffffffffffffffffffffffffffff1681565b60606001805480602002602001604051908101604052809291908181526020018280548015610af657602002820191906000526020600020905b8160009054906101000a900473ffffffffffffffffffffffffffffffffffffffff1673ffffffffffffffffffffffffffffffffffffffff1681526020019060010190808311610aac575b5050505050905090565b60026020528060005260406000206000915054906101000a900460ff1681565b600080606060008060008060048881548110610b3f57610b3e611e84565b5b906000526020600020906005020190508060000160009054906101000a900473ffffffffffffffffffffffffffffffffffffffff1681600101548260020183600301548460040160009054906101000a900460ff168560040160019054906101000a900473ffffffffffffffffffffffffffffffffffffffff16838054610bc5906120ba565b80601f0160208091040260200160405190810160405280929190818152602001828054610bf1906120ba565b8015610c3e5780601f10610c1357610100808354040283529160200191610c3e565b820191906000526020600020905b815481529060010190602001808311610c2157829003601f168201915b505050505093509650965096509650965096505091939550919395565b60008054906101000a900473ffffffffffffffffffffffffffffffffffffffff1673ffffffffffffffffffffffffffffffffffffffff163373ffffffffffffffffffffffffffffffffffffffff1614610ce9576040517f08c379a0000000000000000000000000000000000000000000000000000000008152600401610ce09061220f565b60405180910390fd5b600073ffffffffffffffffffffffffffffffffffffffff168173ffffffffffffffffffffffffffffffffffffffff1603610d58576040517f08c379a0000000000000000000000000000000000000000000000000000000008152600401610d4f9061227b565b60405180910390fd5b600260008273ffffffffffffffffffffffffffffffffffffffff1673ffffffffffffffffffffffffffffffffffffffff16815260200190815260200160002060009054906101000a900460ff1615610de5576040517f08c379a0000000000000000000000000000000000000000000000000000000008152600401610ddc906122e7565b60405180910390fd5b6001819080600181540180825580915050600190039060005260206000200160009091909190916101000a81548173ffffffffffffffffffffffffffffffffffffffff021916908373ffffffffffffffffffffffffffffffffffffffff1602179055506001600260008373ffffffffffffffffffffffffffffffffffffffff1673ffffffffffffffffffffffffffffffffffffffff16815260200190815260200160002060006101000a81548160ff0219169083151502179055507fb251eb052afc73ffd02ffe85ad79990a8b3fed60d76dbc2fa2fdd7123dffd91481604051610ecf919061187d565b60405180910390a150565b600260003373ffffffffffffffffffffffffffffffffffffffff1673ffffffffffffffffffffffffffffffffffffffff16815260200190815260200160002060009054906101000a900460ff16610f66576040517f08c379a0000000000000000000000000000000000000000000000000000000008152600401610f5d90612379565b60405180910390fd5b600073ffffffffffffffffffffffffffffffffffffffff168473ffffffffffffffffffffffffffffffffffffffff1603610fd5576040517f08c379a0000000000000000000000000000000000000000000000000000000008152600401610fcc906123e5565b60405180910390fd5b60046040518060c001604052808673ffffffffffffffffffffffffffffffffffffffff16815260200185815260200184848080601f016020809104026020016040519081016040528093929190818152602001838380828437600081840152601f19601f820116905080830192505050505050508152602001600081526020016000151581526020013373ffffffffffffffffffffffffffffffffffffffff16815250908060018154018082558091505060019003906000526020600020906005020160009091909190915060008201518160000160006101000a81548173ffffffffffffffffffffffffffffffffffffffff021916908373ffffffffffffffffffffffffffffffffffffffff16021790555060208201518160010155604082015181600201908161110791906125e0565b506060820151816003015560808201518160040160006101000a81548160ff02191690831515021790555060a08201518160040160016101000a81548173ffffffffffffffffffffffffffffffffffffffff021916908373ffffffffffffffffffffffffffffffffffffffff16021790555050506003600081548092919061118e90611fba565b91905055507f85b1e5bd1e58840265c40582ff09f8cbfab823e041a824467b654a99b5156d3960016004805490506111c691906126b2565b858585856040516111db959493929190612722565b60405180910390a150505050565b606080606080606080600060048054905090508067ffffffffffffffff81111561121657611215612405565b5b6040519080825280602002602001820160405280156112445781602001602082028036833780820191505090505b5096508067ffffffffffffffff81111561126157611260612405565b5b60405190808252806020026020018201604052801561128f5781602001602082028036833780820191505090505b5095508067ffffffffffffffff8111156112ac576112ab612405565b5b6040519080825280602002602001820160405280156112df57816020015b60608152602001906001900390816112ca5790505b5094508067ffffffffffffffff8111156112fc576112fb612405565b5b60405190808252806020026020018201604052801561132a5781602001602082028036833780820191505090505b5093508067ffffffffffffffff81111561134757611346612405565b5b6040519080825280602002602001820160405280156113755781602001602082028036833780820191505090505b5092508067ffffffffffffffff81111561139257611391612405565b5b6040519080825280602002602001820160405280156113c05781602001602082028036833780820191505090505b50915060005b81811015611616576000600482815481106113e4576113e3611e84565b5b906000526020600020906005020190508060000160009054906101000a900473ffffffffffffffffffffffffffffffffffffffff1689838151811061142c5761142b611e84565b5b602002602001019073ffffffffffffffffffffffffffffffffffffffff16908173ffffffffffffffffffffffffffffffffffffffff1681525050806001015488838151811061147e5761147d611e84565b5b602002602001018181525050806002018054611499906120ba565b80601f01602080910402602001604051908101604052809291908181526020018280546114c5906120ba565b80156115125780601f106114e757610100808354040283529160200191611512565b820191906000526020600020905b8154815290600101906020018083116114f557829003601f168201915b505050505087838151811061152a57611529611e84565b5b6020026020010181905250806003015486838151811061154d5761154c611e84565b5b6020026020010181815250508060040160009054906101000a900460ff1685838151811061157e5761157d611e84565b5b6020026020010190151590811515815250508060040160019054906101000a900473ffffffffffffffffffffffffffffffffffffffff168483815181106115c8576115c7611e84565b5b602002602001019073ffffffffffffffffffffffffffffffffffffffff16908173ffffffffffffffffffffffffffffffffffffffff168152505050808061160e90611fba565b9150506113c6565b5050909192939495565b60035481565b600080fd5b600080fd5b6000819050919050565b61164381611630565b811461164e57600080fd5b50565b6000813590506116608161163a565b92915050565b60006020828403121561167c5761167b611626565b5b600061168a84828501611651565b91505092915050565b600073ffffffffffffffffffffffffffffffffffffffff82169050919050565b60006116be82611693565b9050919050565b6116ce816116b3565b82525050565b6116dd81611630565b82525050565b600081519050919050565b600082825260208201905092915050565b60005b8381101561171d578082015181840152602081019050611702565b60008484015250505050565b6000601f19601f8301169050919050565b6000611745826116e3565b61174f81856116ee565b935061175f8185602086016116ff565b61176881611729565b840191505092915050565b60008115159050919050565b61178881611773565b82525050565b600060c0820190506117a360008301896116c5565b6117b060208301886116d4565b81810360408301526117c2818761173a565b90506117d160608301866116d4565b6117de608083018561177f565b6117eb60a08301846116c5565b979650505050505050565b6117ff816116b3565b811461180a57600080fd5b50565b60008135905061181c816117f6565b92915050565b6000806040838503121561183957611838611626565b5b600061184785828601611651565b92505060206118588582860161180d565b9150509250929050565b6000602082019050611877600083018461177f565b92915050565b600060208201905061189260008301846116c5565b92915050565b600081519050919050565b600082825260208201905092915050565b6000819050602082019050919050565b6118cd816116b3565b82525050565b60006118df83836118c4565b60208301905092915050565b6000602082019050919050565b600061190382611898565b61190d81856118a3565b9350611918836118b4565b8060005b8381101561194957815161193088826118d3565b975061193b836118eb565b92505060018101905061191c565b5085935050505092915050565b6000602082019050818103600083015261197081846118f8565b905092915050565b60006020828403121561198e5761198d611626565b5b600061199c8482850161180d565b91505092915050565b600080fd5b600080fd5b600080fd5b60008083601f8401126119ca576119c96119a5565b5b8235905067ffffffffffffffff8111156119e7576119e66119aa565b5b602083019150836001820283011115611a0357611a026119af565b5b9250929050565b60008060008060608587031215611a2457611a23611626565b5b6000611a328782880161180d565b9450506020611a4387828801611651565b935050604085013567ffffffffffffffff811115611a6457611a6361162b565b5b611a70878288016119b4565b925092505092959194509250565b600081519050919050565b600082825260208201905092915050565b6000819050602082019050919050565b611ab381611630565b82525050565b6000611ac58383611aaa565b60208301905092915050565b6000602082019050919050565b6000611ae982611a7e565b611af38185611a89565b9350611afe83611a9a565b8060005b83811015611b2f578151611b168882611ab9565b9750611b2183611ad1565b925050600181019050611b02565b5085935050505092915050565b600081519050919050565b600082825260208201905092915050565b6000819050602082019050919050565b600082825260208201905092915050565b6000611b84826116e3565b611b8e8185611b68565b9350611b9e8185602086016116ff565b611ba781611729565b840191505092915050565b6000611bbe8383611b79565b905092915050565b6000602082019050919050565b6000611bde82611b3c565b611be88185611b47565b935083602082028501611bfa85611b58565b8060005b85811015611c365784840389528151611c178582611bb2565b9450611c2283611bc6565b925060208a01995050600181019050611bfe565b50829750879550505050505092915050565b600081519050919050565b600082825260208201905092915050565b6000819050602082019050919050565b611c7d81611773565b82525050565b6000611c8f8383611c74565b60208301905092915050565b6000602082019050919050565b6000611cb382611c48565b611cbd8185611c53565b9350611cc883611c64565b8060005b83811015611cf9578151611ce08882611c83565b9750611ceb83611c9b565b925050600181019050611ccc565b5085935050505092915050565b600060c0820190508181036000830152611d2081896118f8565b90508181036020830152611d348188611ade565b90508181036040830152611d488187611bd3565b90508181036060830152611d5c8186611ade565b90508181036080830152611d708185611ca8565b905081810360a0830152611d8481846118f8565b9050979650505050505050565b6000602082019050611da660008301846116d4565b92915050565b7f4f6e6c79206d656d626572732063616e20766f74650000000000000000000000600082015250565b6000611de26015836116ee565b9150611ded82611dac565b602082019050919050565b60006020820190508181036000830152611e1181611dd5565b9050919050565b7f496e76616c69642070726f706f73616c20494400000000000000000000000000600082015250565b6000611e4e6013836116ee565b9150611e5982611e18565b602082019050919050565b60006020820190508181036000830152611e7d81611e41565b9050919050565b7f4e487b7100000000000000000000000000000000000000000000000000000000600052603260045260246000fd5b7f416c726561647920766f74656400000000000000000000000000000000000000600082015250565b6000611ee9600d836116ee565b9150611ef482611eb3565b602082019050919050565b60006020820190508181036000830152611f1881611edc565b9050919050565b7f50726f706f73616c20616c726561647920657865637574656400000000000000600082015250565b6000611f556019836116ee565b9150611f6082611f1f565b602082019050919050565b60006020820190508181036000830152611f8481611f48565b9050919050565b7f4e487b7100000000000000000000000000000000000000000000000000000000600052601160045260246000fd5b6000611fc582611630565b91507fffffffffffffffffffffffffffffffffffffffffffffffffffffffffffffffff8203611ff757611ff6611f8b565b5b600182019050919050565b600060408201905061201760008301856116d4565b61202460208301846116c5565b9392505050565b7f4e487b7100000000000000000000000000000000000000000000000000000000600052601260045260246000fd5b600061206582611630565b915061207083611630565b9250826120805761207f61202b565b5b828204905092915050565b7f4e487b7100000000000000000000000000000000000000000000000000000000600052602260045260246000fd5b600060028204905060018216806120d257607f821691505b6020821081036120e5576120e461208b565b5b50919050565b7f416c726561647920657865637574656400000000000000000000000000000000600082015250565b60006121216010836116ee565b915061212c826120eb565b602082019050919050565b6000602082019050818103600083015261215081612114565b9050919050565b7f496e73756666696369656e742062616c616e6365000000000000000000000000600082015250565b600061218d6014836116ee565b915061219882612157565b602082019050919050565b600060208201905081810360008301526121bc81612180565b9050919050565b7f4f6e6c79206f776e65722063616e20616464206d656d62657273000000000000600082015250565b60006121f9601a836116ee565b9150612204826121c3565b602082019050919050565b60006020820190508181036000830152612228816121ec565b9050919050565b7f496e76616c696420616464726573730000000000000000000000000000000000600082015250565b6000612265600f836116ee565b91506122708261222f565b602082019050919050565b6000602082019050818103600083015261229481612258565b9050919050565b7f416c72656164792061206d656d62657200000000000000000000000000000000600082015250565b60006122d16010836116ee565b91506122dc8261229b565b602082019050919050565b60006020820190508181036000830152612300816122c4565b9050919050565b7f4f6e6c79206d656d626572732063616e206372656174652070726f706f73616c60008201527f7300000000000000000000000000000000000000000000000000000000000000602082015250565b60006123636021836116ee565b915061236e82612307565b604082019050919050565b6000602082019050818103600083015261239281612356565b9050919050565b7f496e76616c696420726563697069656e74206164647265737300000000000000600082015250565b60006123cf6019836116ee565b91506123da82612399565b602082019050919050565b600060208201905081810360008301526123fe816123c2565b9050919050565b7f4e487b7100000000000000000000000000000000000000000000000000000000600052604160045260246000fd5b60008190508160005260206000209050919050565b60006020601f8301049050919050565b600082821b905092915050565b6000600883026124967fffffffffffffffffffffffffffffffffffffffffffffffffffffffffffffffff82612459565b6124a08683612459565b95508019841693508086168417925050509392505050565b6000819050919050565b60006124dd6124d86124d384611630565b6124b8565b611630565b9050919050565b6000819050919050565b6124f7836124c2565b61250b612503826124e4565b848454612466565b825550505050565b600090565b612520612513565b61252b8184846124ee565b505050565b5b8181101561254f57612544600082612518565b600181019050612531565b5050565b601f8211156125945761256581612434565b61256e84612449565b8101602085101561257d578190505b61259161258985612449565b830182612530565b50505b505050565b600082821c905092915050565b60006125b760001984600802612599565b1980831691505092915050565b60006125d083836125a6565b9150826002028217905092915050565b6125e9826116e3565b67ffffffffffffffff81111561260257612601612405565b5b61260c82546120ba565b612617828285612553565b600060209050601f83116001811461264a5760008415612638578287015190505b61264285826125c4565b8655506126aa565b601f19841661265886612434565b60005b828110156126805784890151825560018201915060208501945060208101905061265b565b8683101561269d5784890151612699601f8916826125a6565b8355505b6001600288020188555050505b505050505050565b60006126bd82611630565b91506126c883611630565b92508282039050818111156126e0576126df611f8b565b5b92915050565b82818337600083830152505050565b600061270183856116ee565b935061270e8385846126e6565b61271783611729565b840190509392505050565b600060808201905061273760008301886116d4565b61274460208301876116c5565b61275160408301866116d4565b81810360608301526127648184866126f5565b9050969550505050505056fea264697066735822122042d5c9a9a227cdd0f4ad398806fa21f97f982625de9d8015ff2a42b7ee2e940e64736f6c63430008140033",
  "linkReferences": {},
  "deployedLinkReferences": {}
}